{
  "_format": "hh-sol-artifact-1",
  "contractName": "EventTicketing",
  "sourceName": "contracts/EventTicketing.sol",
  "abi": [
    {
      "inputs": [],
      "stateMutability": "nonpayable",
      "type": "constructor"
    },
    {
      "anonymous": false,
      "inputs": [
        {
          "indexed": false,
          "internalType": "uint256",
          "name": "id",
          "type": "uint256"
        },
        {
          "indexed": false,
          "internalType": "string",
          "name": "eventName",
          "type": "string"
        },
        {
          "indexed": false,
          "internalType": "uint256",
          "name": "price",
          "type": "uint256"
        }
      ],
      "name": "TicketCreated",
      "type": "event"
    },
    {
      "anonymous": false,
      "inputs": [
        {
          "indexed": false,
          "internalType": "uint256",
          "name": "id",
          "type": "uint256"
        },
        {
          "indexed": false,
          "internalType": "address",
          "name": "buyer",
          "type": "address"
        },
        {
          "indexed": false,
          "internalType": "uint256",
          "name": "price",
          "type": "uint256"
        }
      ],
      "name": "TicketPurchased",
      "type": "event"
    },
    {
      "inputs": [
        {
          "internalType": "string",
          "name": "_eventName",
          "type": "string"
        },
        {
          "internalType": "uint256",
          "name": "_price",
          "type": "uint256"
        }
      ],
      "name": "createTicket",
      "outputs": [],
      "stateMutability": "nonpayable",
      "type": "function"
    },
    {
      "inputs": [
        {
          "internalType": "uint256",
          "name": "_id",
          "type": "uint256"
        }
      ],
      "name": "getTicket",
      "outputs": [
        {
          "components": [
            {
              "internalType": "uint256",
              "name": "id",
              "type": "uint256"
            },
            {
              "internalType": "string",
              "name": "eventName",
              "type": "string"
            },
            {
              "internalType": "address",
              "name": "owner",
              "type": "address"
            },
            {
              "internalType": "uint256",
              "name": "price",
              "type": "uint256"
            },
            {
              "internalType": "bool",
              "name": "isSold",
              "type": "bool"
            }
          ],
          "internalType": "struct EventTicketing.Ticket",
          "name": "",
          "type": "tuple"
        }
      ],
      "stateMutability": "view",
      "type": "function"
    },
    {
      "inputs": [],
      "name": "owner",
      "outputs": [
        {
          "internalType": "address",
          "name": "",
          "type": "address"
        }
      ],
      "stateMutability": "view",
      "type": "function"
    },
    {
      "inputs": [
        {
          "internalType": "uint256",
          "name": "_id",
          "type": "uint256"
        }
      ],
      "name": "purchaseTicket",
      "outputs": [],
      "stateMutability": "payable",
      "type": "function"
    },
    {
      "inputs": [],
      "name": "ticketCount",
      "outputs": [
        {
          "internalType": "uint256",
          "name": "",
          "type": "uint256"
        }
      ],
      "stateMutability": "view",
      "type": "function"
    },
    {
      "inputs": [
        {
          "internalType": "uint256",
          "name": "",
          "type": "uint256"
        }
      ],
      "name": "tickets",
      "outputs": [
        {
          "internalType": "uint256",
          "name": "id",
          "type": "uint256"
        },
        {
          "internalType": "string",
          "name": "eventName",
          "type": "string"
        },
        {
          "internalType": "address",
          "name": "owner",
          "type": "address"
        },
        {
          "internalType": "uint256",
          "name": "price",
          "type": "uint256"
        },
        {
          "internalType": "bool",
          "name": "isSold",
          "type": "bool"
        }
      ],
      "stateMutability": "view",
      "type": "function"
    }
  ],
  "bytecode": "0x6080604052348015600f57600080fd5b5033600260006101000a81548173ffffffffffffffffffffffffffffffffffffffff021916908373ffffffffffffffffffffffffffffffffffffffff160217905550611295806100606000396000f3fe6080604052600436106100555760003560e01c806350b447121461005a5780637dc379fa1461009b5780638729004f146100d85780638da5cb5b14610101578063b948348c1461012c578063cfbd900f14610148575b600080fd5b34801561006657600080fd5b50610081600480360381019061007c919061088d565b610173565b6040516100929594939291906109b5565b60405180910390f35b3480156100a757600080fd5b506100c260048036038101906100bd919061088d565b61025e565b6040516100cf9190610afc565b60405180910390f35b3480156100e457600080fd5b506100ff60048036038101906100fa9190610c53565b6103f9565b005b34801561010d57600080fd5b5061011661057f565b6040516101239190610caf565b60405180910390f35b6101466004803603810190610141919061088d565b6105a5565b005b34801561015457600080fd5b5061015d6107f6565b60405161016a9190610cca565b60405180910390f35b600060205280600052604060002060009150905080600001549080600101805461019c90610d14565b80601f01602080910402602001604051908101604052809291908181526020018280546101c890610d14565b80156102155780601f106101ea57610100808354040283529160200191610215565b820191906000526020600020905b8154815290600101906020018083116101f857829003601f168201915b5050505050908060020160009054906101000a900473ffffffffffffffffffffffffffffffffffffffff16908060030154908060040160009054906101000a900460ff16905085565b6102666107fc565b600080600084815260200190815260200160002060000154036102be576040517f08c379a00000000000000000000000000000000000000000000000000000000081526004016102b590610d91565b60405180910390fd5b6000808381526020019081526020016000206040518060a0016040529081600082015481526020016001820180546102f590610d14565b80601f016020809104026020016040519081016040528092919081815260200182805461032190610d14565b801561036e5780601f106103435761010080835404028352916020019161036e565b820191906000526020600020905b81548152906001019060200180831161035157829003601f168201915b505050505081526020016002820160009054906101000a900473ffffffffffffffffffffffffffffffffffffffff1673ffffffffffffffffffffffffffffffffffffffff1673ffffffffffffffffffffffffffffffffffffffff168152602001600382015481526020016004820160009054906101000a900460ff1615151515815250509050919050565b6000811161043c576040517f08c379a000000000000000000000000000000000000000000000000000000000815260040161043390610dfd565b60405180910390fd5b6001600081548092919061044f90610e4c565b91905055506040518060a0016040528060015481526020018381526020013373ffffffffffffffffffffffffffffffffffffffff1681526020018281526020016000151581525060008060015481526020019081526020016000206000820151816000015560208201518160010190816104c99190611040565b5060408201518160020160006101000a81548173ffffffffffffffffffffffffffffffffffffffff021916908373ffffffffffffffffffffffffffffffffffffffff1602179055506060820151816003015560808201518160040160006101000a81548160ff0219169083151502179055509050507f8550072cf65e7dba6061d815bd811810cdf612d496ed34801aed7146aa260546600154838360405161057393929190611112565b60405180910390a15050565b600260009054906101000a900473ffffffffffffffffffffffffffffffffffffffff1681565b600080600083815260200190815260200160002060000154036105fd576040517f08c379a00000000000000000000000000000000000000000000000000000000081526004016105f490610d91565b60405180910390fd5b60008082815260200190815260200160002060040160009054906101000a900460ff1615610660576040517f08c379a00000000000000000000000000000000000000000000000000000000081526004016106579061119c565b60405180910390fd5b600080828152602001908152602001600020600301543410156106b8576040517f08c379a00000000000000000000000000000000000000000000000000000000081526004016106af90611208565b60405180910390fd5b3360008083815260200190815260200160002060020160006101000a81548173ffffffffffffffffffffffffffffffffffffffff021916908373ffffffffffffffffffffffffffffffffffffffff160217905550600160008083815260200190815260200160002060040160006101000a81548160ff021916908315150217905550600260009054906101000a900473ffffffffffffffffffffffffffffffffffffffff1673ffffffffffffffffffffffffffffffffffffffff166108fc349081150290604051600060405180830381858888f193505050501580156107a2573d6000803e3d6000fd5b507fdbaaf4c87ce30816c961a81d110622a3227ede77953d4383d514ff88ab2e0fd38133600080858152602001908152602001600020600301546040516107eb93929190611228565b60405180910390a150565b60015481565b6040518060a001604052806000815260200160608152602001600073ffffffffffffffffffffffffffffffffffffffff168152602001600081526020016000151581525090565b6000604051905090565b600080fd5b600080fd5b6000819050919050565b61086a81610857565b811461087557600080fd5b50565b60008135905061088781610861565b92915050565b6000602082840312156108a3576108a261084d565b5b60006108b184828501610878565b91505092915050565b6108c381610857565b82525050565b600081519050919050565b600082825260208201905092915050565b60005b838110156109035780820151818401526020810190506108e8565b60008484015250505050565b6000601f19601f8301169050919050565b600061092b826108c9565b61093581856108d4565b93506109458185602086016108e5565b61094e8161090f565b840191505092915050565b600073ffffffffffffffffffffffffffffffffffffffff82169050919050565b600061098482610959565b9050919050565b61099481610979565b82525050565b60008115159050919050565b6109af8161099a565b82525050565b600060a0820190506109ca60008301886108ba565b81810360208301526109dc8187610920565b90506109eb604083018661098b565b6109f860608301856108ba565b610a0560808301846109a6565b9695505050505050565b610a1881610857565b82525050565b600082825260208201905092915050565b6000610a3a826108c9565b610a448185610a1e565b9350610a548185602086016108e5565b610a5d8161090f565b840191505092915050565b610a7181610979565b82525050565b610a808161099a565b82525050565b600060a083016000830151610a9e6000860182610a0f565b5060208301518482036020860152610ab68282610a2f565b9150506040830151610acb6040860182610a68565b506060830151610ade6060860182610a0f565b506080830151610af16080860182610a77565b508091505092915050565b60006020820190508181036000830152610b168184610a86565b905092915050565b600080fd5b600080fd5b7f4e487b7100000000000000000000000000000000000000000000000000000000600052604160045260246000fd5b610b608261090f565b810181811067ffffffffffffffff82111715610b7f57610b7e610b28565b5b80604052505050565b6000610b92610843565b9050610b9e8282610b57565b919050565b600067ffffffffffffffff821115610bbe57610bbd610b28565b5b610bc78261090f565b9050602081019050919050565b82818337600083830152505050565b6000610bf6610bf184610ba3565b610b88565b905082815260208101848484011115610c1257610c11610b23565b5b610c1d848285610bd4565b509392505050565b600082601f830112610c3a57610c39610b1e565b5b8135610c4a848260208601610be3565b91505092915050565b60008060408385031215610c6a57610c6961084d565b5b600083013567ffffffffffffffff811115610c8857610c87610852565b5b610c9485828601610c25565b9250506020610ca585828601610878565b9150509250929050565b6000602082019050610cc4600083018461098b565b92915050565b6000602082019050610cdf60008301846108ba565b92915050565b7f4e487b7100000000000000000000000000000000000000000000000000000000600052602260045260246000fd5b60006002820490506001821680610d2c57607f821691505b602082108103610d3f57610d3e610ce5565b5b50919050565b7f5469636b657420646f6573206e6f742065786973740000000000000000000000600082015250565b6000610d7b6015836108d4565b9150610d8682610d45565b602082019050919050565b60006020820190508181036000830152610daa81610d6e565b9050919050565b7f5072696365206d7573742062652067726561746572207468616e207a65726f00600082015250565b6000610de7601f836108d4565b9150610df282610db1565b602082019050919050565b60006020820190508181036000830152610e1681610dda565b9050919050565b7f4e487b7100000000000000000000000000000000000000000000000000000000600052601160045260246000fd5b6000610e5782610857565b91507fffffffffffffffffffffffffffffffffffffffffffffffffffffffffffffffff8203610e8957610e88610e1d565b5b600182019050919050565b60008190508160005260206000209050919050565b60006020601f8301049050919050565b600082821b905092915050565b600060088302610ef67fffffffffffffffffffffffffffffffffffffffffffffffffffffffffffffffff82610eb9565b610f008683610eb9565b95508019841693508086168417925050509392505050565b6000819050919050565b6000610f3d610f38610f3384610857565b610f18565b610857565b9050919050565b6000819050919050565b610f5783610f22565b610f6b610f6382610f44565b848454610ec6565b825550505050565b600090565b610f80610f73565b610f8b818484610f4e565b505050565b5b81811015610faf57610fa4600082610f78565b600181019050610f91565b5050565b601f821115610ff457610fc581610e94565b610fce84610ea9565b81016020851015610fdd578190505b610ff1610fe985610ea9565b830182610f90565b50505b505050565b600082821c905092915050565b600061101760001984600802610ff9565b1980831691505092915050565b60006110308383611006565b9150826002028217905092915050565b611049826108c9565b67ffffffffffffffff81111561106257611061610b28565b5b61106c8254610d14565b611077828285610fb3565b600060209050601f8311600181146110aa5760008415611098578287015190505b6110a28582611024565b86555061110a565b601f1984166110b886610e94565b60005b828110156110e0578489015182556001820191506020850194506020810190506110bb565b868310156110fd57848901516110f9601f891682611006565b8355505b6001600288020188555050505b505050505050565b600060608201905061112760008301866108ba565b81810360208301526111398185610920565b905061114860408301846108ba565b949350505050565b7f5469636b657420616c726561647920736f6c6400000000000000000000000000600082015250565b60006111866013836108d4565b915061119182611150565b602082019050919050565b600060208201905081810360008301526111b581611179565b9050919050565b7f496e73756666696369656e74207061796d656e74000000000000000000000000600082015250565b60006111f26014836108d4565b91506111fd826111bc565b602082019050919050565b60006020820190508181036000830152611221816111e5565b9050919050565b600060608201905061123d60008301866108ba565b61124a602083018561098b565b61125760408301846108ba565b94935050505056fea2646970667358221220d415354deae15b3e4da4d177b00ef1f3eb772b5c28c24f63f33109f1d2406f6c64736f6c634300081c0033",
  "linkReferences": {},
  "deployedLinkReferences": {}
}